{
  "contractName": "CourseMarketPlace",
  "abi": [
    {
      "inputs": [],
      "stateMutability": "nonpayable",
      "type": "constructor"
    },
    {
      "inputs": [],
      "name": "CourseHasOwner",
      "type": "error"
    },
    {
      "inputs": [],
      "name": "CourseIsNotCreated",
      "type": "error"
    },
    {
      "inputs": [],
      "name": "InvalidState",
      "type": "error"
    },
    {
      "inputs": [],
      "name": "OnlyOnwer",
      "type": "error"
    },
    {
      "inputs": [
        {
          "internalType": "bytes16",
          "name": "courseId",
          "type": "bytes16"
        },
        {
          "internalType": "bytes32",
          "name": "proof",
          "type": "bytes32"
        }
      ],
      "name": "purchaseCourse",
      "outputs": [],
      "stateMutability": "payable",
      "type": "function",
      "payable": true
    },
    {
      "inputs": [
        {
          "internalType": "bytes32",
          "name": "courseHash",
          "type": "bytes32"
        }
      ],
      "name": "activateCourse",
      "outputs": [],
      "stateMutability": "nonpayable",
      "type": "function"
    },
    {
      "inputs": [
        {
          "internalType": "address",
          "name": "newOwner",
          "type": "address"
        }
      ],
      "name": "transferOwnership",
      "outputs": [],
      "stateMutability": "nonpayable",
      "type": "function"
    },
    {
      "inputs": [],
      "name": "getCourseCount",
      "outputs": [
        {
          "internalType": "uint256",
          "name": "",
          "type": "uint256"
        }
      ],
      "stateMutability": "view",
      "type": "function",
      "constant": true
    },
    {
      "inputs": [
        {
          "internalType": "uint256",
          "name": "index",
          "type": "uint256"
        }
      ],
      "name": "getCourseHashAtIndex",
      "outputs": [
        {
          "internalType": "bytes32",
          "name": "",
          "type": "bytes32"
        }
      ],
      "stateMutability": "view",
      "type": "function",
      "constant": true
    },
    {
      "inputs": [
        {
          "internalType": "bytes32",
          "name": "courseHash",
          "type": "bytes32"
        }
      ],
      "name": "getCourseHashByHash",
      "outputs": [
        {
          "components": [
            {
              "internalType": "uint256",
              "name": "id",
              "type": "uint256"
            },
            {
              "internalType": "uint256",
              "name": "price",
              "type": "uint256"
            },
            {
              "internalType": "bytes32",
              "name": "proof",
              "type": "bytes32"
            },
            {
              "internalType": "address",
              "name": "owner",
              "type": "address"
            },
            {
              "internalType": "enum CourseMarketPlace.State",
              "name": "state",
              "type": "uint8"
            }
          ],
          "internalType": "struct CourseMarketPlace.Course",
          "name": "",
          "type": "tuple"
        }
      ],
      "stateMutability": "view",
      "type": "function",
      "constant": true
    },
    {
      "inputs": [],
      "name": "getContractOwner",
      "outputs": [
        {
          "internalType": "address",
          "name": "",
          "type": "address"
        }
      ],
      "stateMutability": "view",
      "type": "function",
      "constant": true
    }
  ],
  "bytecode": "0x608060405234801561001057600080fd5b506100203361002560201b60201c565b610069565b80600360006101000a81548173ffffffffffffffffffffffffffffffffffffffff021916908373ffffffffffffffffffffffffffffffffffffffff16021790555050565b610dc2806100786000396000f3fe6080604052600436106100705760003560e01c806396cfda061161004e57806396cfda0614610106578063cf138d3214610131578063d76821cb1461016e578063f2fde38b1461018a57610070565b80633926257214610075578063442890d51461009e5780636d11290b146100c9575b600080fd5b34801561008157600080fd5b5061009c600480360381019061009791906109ba565b6101b3565b005b3480156100aa57600080fd5b506100b3610386565b6040516100c09190610b37565b60405180910390f35b3480156100d557600080fd5b506100f060048036038101906100eb91906109e3565b6103b0565b6040516100fd9190610b52565b60405180910390f35b34801561011257600080fd5b5061011b6103cd565b6040516101289190610b88565b60405180910390f35b34801561013d57600080fd5b50610158600480360381019061015391906109ba565b6103d7565b6040516101659190610b6d565b60405180910390f35b6101886004803603810190610183919061097e565b6104fe565b005b34801561019657600080fd5b506101b160048036038101906101ac9190610955565b6106ea565b005b6101bb610386565b73ffffffffffffffffffffffffffffffffffffffff163373ffffffffffffffffffffffffffffffffffffffff161461021f576040517ffb353b2200000000000000000000000000000000000000000000000000000000815260040160405180910390fd5b61022881610762565b61025e576040517f4db0c48300000000000000000000000000000000000000000000000000000000815260040160405180910390fd5b60008060008381526020019081526020016000209050600060028111156102ae577f4e487b7100000000000000000000000000000000000000000000000000000000600052602160045260246000fd5b8160030160149054906101000a900460ff1660028111156102f8577f4e487b7100000000000000000000000000000000000000000000000000000000600052602160045260246000fd5b1461032f576040517fbaf3f0f700000000000000000000000000000000000000000000000000000000815260040160405180910390fd5b60018160030160146101000a81548160ff0219169083600281111561037d577f4e487b7100000000000000000000000000000000000000000000000000000000600052602160045260246000fd5b02179055505050565b6000600360009054906101000a900473ffffffffffffffffffffffffffffffffffffffff16905090565b600060016000838152602001908152602001600020549050919050565b6000600254905090565b6103df610881565b6000808381526020019081526020016000206040518060a00160405290816000820154815260200160018201548152602001600282015481526020016003820160009054906101000a900473ffffffffffffffffffffffffffffffffffffffff1673ffffffffffffffffffffffffffffffffffffffff1673ffffffffffffffffffffffffffffffffffffffff1681526020016003820160149054906101000a900460ff1660028111156104bb577f4e487b7100000000000000000000000000000000000000000000000000000000600052602160045260246000fd5b60028111156104f3577f4e487b7100000000000000000000000000000000000000000000000000000000600052602160045260246000fd5b815250509050919050565b60008233604051602001610513929190610b0b565b604051602081830303815290604052805190602001209050610534816107d0565b1561056b576040517fb0fc2d9700000000000000000000000000000000000000000000000000000000815260040160405180910390fd5b60006002600081548092919061058090610c3a565b9190505590508160016000838152602001908152602001600020819055506040518060a001604052808281526020013481526020018481526020013373ffffffffffffffffffffffffffffffffffffffff16815260200160006002811115610611577f4e487b7100000000000000000000000000000000000000000000000000000000600052602160045260246000fd5b81525060008084815260200190815260200160002060008201518160000155602082015181600101556040820151816002015560608201518160030160006101000a81548173ffffffffffffffffffffffffffffffffffffffff021916908373ffffffffffffffffffffffffffffffffffffffff16021790555060808201518160030160146101000a81548160ff021916908360028111156106dc577f4e487b7100000000000000000000000000000000000000000000000000000000600052602160045260246000fd5b021790555090505050505050565b6106f2610386565b73ffffffffffffffffffffffffffffffffffffffff163373ffffffffffffffffffffffffffffffffffffffff1614610756576040517ffb353b2200000000000000000000000000000000000000000000000000000000815260040160405180910390fd5b61075f8161083d565b50565b60008073ffffffffffffffffffffffffffffffffffffffff1660008084815260200190815260200160002060030160009054906101000a900473ffffffffffffffffffffffffffffffffffffffff1673ffffffffffffffffffffffffffffffffffffffff1614159050919050565b60003373ffffffffffffffffffffffffffffffffffffffff1660008084815260200190815260200160002060030160009054906101000a900473ffffffffffffffffffffffffffffffffffffffff1673ffffffffffffffffffffffffffffffffffffffff16149050919050565b80600360006101000a81548173ffffffffffffffffffffffffffffffffffffffff021916908373ffffffffffffffffffffffffffffffffffffffff16021790555050565b6040518060a00160405280600081526020016000815260200160008019168152602001600073ffffffffffffffffffffffffffffffffffffffff168152602001600060028111156108fb577f4e487b7100000000000000000000000000000000000000000000000000000000600052602160045260246000fd5b81525090565b60008135905061091081610d30565b92915050565b60008135905061092581610d47565b92915050565b60008135905061093a81610d5e565b92915050565b60008135905061094f81610d75565b92915050565b60006020828403121561096757600080fd5b600061097584828501610901565b91505092915050565b6000806040838503121561099157600080fd5b600061099f85828601610916565b92505060206109b08582860161092b565b9150509250929050565b6000602082840312156109cc57600080fd5b60006109da8482850161092b565b91505092915050565b6000602082840312156109f557600080fd5b6000610a0384828501610940565b91505092915050565b610a1581610ba3565b82525050565b610a2481610ba3565b82525050565b610a3b610a3682610ba3565b610c83565b82525050565b610a52610a4d82610bb5565b610c95565b82525050565b610a6181610be1565b82525050565b610a7081610be1565b82525050565b610a7f81610c28565b82525050565b60a082016000820151610a9b6000850182610aed565b506020820151610aae6020850182610aed565b506040820151610ac16040850182610a58565b506060820151610ad46060850182610a0c565b506080820151610ae76080850182610a76565b50505050565b610af681610c1e565b82525050565b610b0581610c1e565b82525050565b6000610b178285610a41565b601082019150610b278284610a2a565b6014820191508190509392505050565b6000602082019050610b4c6000830184610a1b565b92915050565b6000602082019050610b676000830184610a67565b92915050565b600060a082019050610b826000830184610a85565b92915050565b6000602082019050610b9d6000830184610afc565b92915050565b6000610bae82610bfe565b9050919050565b60007fffffffffffffffffffffffffffffffff0000000000000000000000000000000082169050919050565b6000819050919050565b6000819050610bf982610d1c565b919050565b600073ffffffffffffffffffffffffffffffffffffffff82169050919050565b6000819050919050565b6000610c3382610beb565b9050919050565b6000610c4582610c1e565b91507fffffffffffffffffffffffffffffffffffffffffffffffffffffffffffffffff821415610c7857610c77610cb1565b5b600182019050919050565b6000610c8e82610c9f565b9050919050565b6000819050919050565b6000610caa82610d0f565b9050919050565b7f4e487b7100000000000000000000000000000000000000000000000000000000600052601160045260246000fd5b7f4e487b7100000000000000000000000000000000000000000000000000000000600052602160045260246000fd5b60008160601b9050919050565b60038110610d2d57610d2c610ce0565b5b50565b610d3981610ba3565b8114610d4457600080fd5b50565b610d5081610bb5565b8114610d5b57600080fd5b50565b610d6781610be1565b8114610d7257600080fd5b50565b610d7e81610c1e565b8114610d8957600080fd5b5056fea26469706673582212201456fa43157c401854086b95798dda88e507cbaaeb9122b01d76f85e0bb79d5a64736f6c63430008040033",
  "immutableReferences": {},
  "source": "// SPDX-License-Identifier: MIT\npragma solidity >=0.4.22 <0.9.0;\n\ncontract CourseMarketPlace {\n    enum State {\n        Purchased,\n        Activated,\n        Deactivated\n    }\n\n    struct Course {\n        uint id; //32\n        uint price; //32\n        bytes32 proof; //32\n        address owner; //20\n        State state; //1\n    }\n\n    //mapping of the courseHash to Course data\n    mapping(bytes32 => Course) private ownedCourses;\n\n    //mapping of courseID to courseHash\n    mapping(uint => bytes32) private ownedCourseHash;\n\n    //number of all courses + id of the courses\n    uint private totalOwnedCourses;\n\n    address payable private owner;\n\n    constructor() {\n        setContractOwner(msg.sender);\n    }\n\n    /// Course has invalid state!\n    error InvalidState();\n\n    /// Course is not created!\n    error CourseIsNotCreated();\n\n    /// Course has already a Owner!\n    error CourseHasOwner();\n\n    /// Only owner has an access\n    error OnlyOnwer();\n\n    modifier onlyOwner() {\n        if (msg.sender != getContractOwner()) {\n            revert OnlyOnwer();\n        }\n        _;\n    }\n\n    function purchaseCourse(\n        bytes16 courseId, //0x00000000000000000000000000003130\n        bytes32 proof //assume proof is ==> 0x0000000000000000000000000000313000000000000000000000000000003130\n    ) external payable {\n        bytes32 courseHash = keccak256(abi.encodePacked(courseId, msg.sender));\n\n        if (hasCourseOwnership(courseHash)) {\n            revert CourseHasOwner();\n        }\n\n        uint id = totalOwnedCourses++;\n\n        ownedCourseHash[id] = courseHash;\n        ownedCourses[courseHash] = Course({\n            id: id,\n            price: msg.value,\n            proof: proof,\n            owner: msg.sender,\n            state: State.Purchased\n        });\n    }\n\n    function activateCourse(bytes32 courseHash) external onlyOwner {\n        if (!isCourseCreated(courseHash)) {\n            revert CourseIsNotCreated();\n        }\n\n        Course storage course = ownedCourses[courseHash];\n\n        if (course.state != State.Purchased) {\n            revert InvalidState();\n        }\n\n        course.state = State.Activated;\n    }\n\n    function transferOwnership(address newOwner) external onlyOwner {\n        setContractOwner(newOwner);\n    }\n\n    function getCourseCount() external view returns (uint) {\n        return totalOwnedCourses;\n    }\n\n    function getCourseHashAtIndex(uint index) external view returns (bytes32) {\n        return ownedCourseHash[index];\n    }\n\n    function getCourseHashByHash(\n        bytes32 courseHash\n    ) external view returns (Course memory) {\n        return ownedCourses[courseHash];\n    }\n\n    function getContractOwner() public view returns (address) {\n        return owner;\n    }\n\n    function setContractOwner(address newOwner) private {\n        owner = payable(newOwner);\n    }\n\n    function isCourseCreated(bytes32 courseHash) private view returns (bool) {\n        return\n            ownedCourses[courseHash].owner !=\n            0x0000000000000000000000000000000000000000;\n    }\n\n    function hasCourseOwnership(\n        bytes32 courseHash\n    ) private view returns (bool) {\n        return ownedCourses[courseHash].owner == msg.sender;\n    }\n}\n",
  "sourcePath": "/Users/apple/Desktop/development/crypto-project/marketplace-eth/contracts/CourseMarketPlace.sol",
  "compiler": {
    "name": "solc",
    "version": "0.8.4+commit.c7e474f2.Emscripten.clang"
  },
  "schemaVersion": "3.4.13",
  "updatedAt": "2023-10-13T21:22:43.047Z",
  "networkType": "ethereum",
  "devdoc": {
    "kind": "dev",
    "methods": {},
    "version": 1
  },
  "userdoc": {
    "errors": {
      "CourseHasOwner()": [
        {
          "notice": "Course has already a Owner!"
        }
      ],
      "CourseIsNotCreated()": [
        {
          "notice": "Course is not created!"
        }
      ],
      "InvalidState()": [
        {
          "notice": "Course has invalid state!"
        }
      ],
      "OnlyOnwer()": [
        {
          "notice": "Only owner has an access"
        }
      ]
    },
    "kind": "user",
    "methods": {},
    "version": 1
  }
}