{
  "contractName": "CourseMarketPlace",
  "abi": [
    {
      "inputs": [],
      "stateMutability": "nonpayable",
      "type": "constructor"
    },
    {
      "inputs": [],
      "name": "CourseHasOwner",
      "type": "error"
    },
    {
      "inputs": [],
      "name": "OnlyOnwer",
      "type": "error"
    },
    {
      "inputs": [
        {
          "internalType": "bytes16",
          "name": "courseId",
          "type": "bytes16"
        },
        {
          "internalType": "bytes32",
          "name": "proof",
          "type": "bytes32"
        }
      ],
      "name": "purchaseCourse",
      "outputs": [],
      "stateMutability": "payable",
      "type": "function"
    },
    {
      "inputs": [
        {
          "internalType": "address",
          "name": "newOwner",
          "type": "address"
        }
      ],
      "name": "transferOwnership",
      "outputs": [],
      "stateMutability": "nonpayable",
      "type": "function"
    },
    {
      "inputs": [],
      "name": "getCourseCount",
      "outputs": [
        {
          "internalType": "uint256",
          "name": "",
          "type": "uint256"
        }
      ],
      "stateMutability": "view",
      "type": "function"
    },
    {
      "inputs": [
        {
          "internalType": "uint256",
          "name": "index",
          "type": "uint256"
        }
      ],
      "name": "getCourseHashAtIndex",
      "outputs": [
        {
          "internalType": "bytes32",
          "name": "",
          "type": "bytes32"
        }
      ],
      "stateMutability": "view",
      "type": "function"
    },
    {
      "inputs": [
        {
          "internalType": "bytes32",
          "name": "courseHash",
          "type": "bytes32"
        }
      ],
      "name": "getCourseHashByHash",
      "outputs": [
        {
          "components": [
            {
              "internalType": "uint256",
              "name": "id",
              "type": "uint256"
            },
            {
              "internalType": "uint256",
              "name": "price",
              "type": "uint256"
            },
            {
              "internalType": "bytes32",
              "name": "proof",
              "type": "bytes32"
            },
            {
              "internalType": "address",
              "name": "owner",
              "type": "address"
            },
            {
              "internalType": "enum CourseMarketPlace.State",
              "name": "state",
              "type": "uint8"
            }
          ],
          "internalType": "struct CourseMarketPlace.Course",
          "name": "",
          "type": "tuple"
        }
      ],
      "stateMutability": "view",
      "type": "function"
    },
    {
      "inputs": [],
      "name": "getContractOwner",
      "outputs": [
        {
          "internalType": "address",
          "name": "",
          "type": "address"
        }
      ],
      "stateMutability": "view",
      "type": "function"
    }
  ],
  "bytecode": "0x608060405234801561001057600080fd5b506100203361002560201b60201c565b610069565b80600360006101000a81548173ffffffffffffffffffffffffffffffffffffffff021916908373ffffffffffffffffffffffffffffffffffffffff16021790555050565b610b3d806100786000396000f3fe6080604052600436106100555760003560e01c8063442890d51461005a5780636d11290b1461008557806396cfda06146100c2578063cf138d32146100ed578063d76821cb1461012a578063f2fde38b14610146575b600080fd5b34801561006657600080fd5b5061006f61016f565b60405161007c91906108b2565b60405180910390f35b34801561009157600080fd5b506100ac60048036038101906100a7919061075e565b610199565b6040516100b991906108cd565b60405180910390f35b3480156100ce57600080fd5b506100d76101b6565b6040516100e49190610903565b60405180910390f35b3480156100f957600080fd5b50610114600480360381019061010f9190610735565b6101c0565b60405161012191906108e8565b60405180910390f35b610144600480360381019061013f91906106f9565b6102e7565b005b34801561015257600080fd5b5061016d600480360381019061016891906106d0565b6104d3565b005b6000600360009054906101000a900473ffffffffffffffffffffffffffffffffffffffff16905090565b600060016000838152602001908152602001600020549050919050565b6000600254905090565b6101c86105fc565b6000808381526020019081526020016000206040518060a00160405290816000820154815260200160018201548152602001600282015481526020016003820160009054906101000a900473ffffffffffffffffffffffffffffffffffffffff1673ffffffffffffffffffffffffffffffffffffffff1673ffffffffffffffffffffffffffffffffffffffff1681526020016003820160149054906101000a900460ff1660028111156102a4577f4e487b7100000000000000000000000000000000000000000000000000000000600052602160045260246000fd5b60028111156102dc577f4e487b7100000000000000000000000000000000000000000000000000000000600052602160045260246000fd5b815250509050919050565b600082336040516020016102fc929190610886565b60405160208183030381529060405280519060200120905061031d8161054b565b15610354576040517fb0fc2d9700000000000000000000000000000000000000000000000000000000815260040160405180910390fd5b600060026000815480929190610369906109b5565b9190505590508160016000838152602001908152602001600020819055506040518060a001604052808281526020013481526020018481526020013373ffffffffffffffffffffffffffffffffffffffff168152602001600060028111156103fa577f4e487b7100000000000000000000000000000000000000000000000000000000600052602160045260246000fd5b81525060008084815260200190815260200160002060008201518160000155602082015181600101556040820151816002015560608201518160030160006101000a81548173ffffffffffffffffffffffffffffffffffffffff021916908373ffffffffffffffffffffffffffffffffffffffff16021790555060808201518160030160146101000a81548160ff021916908360028111156104c5577f4e487b7100000000000000000000000000000000000000000000000000000000600052602160045260246000fd5b021790555090505050505050565b6104db61016f565b73ffffffffffffffffffffffffffffffffffffffff163373ffffffffffffffffffffffffffffffffffffffff161461053f576040517ffb353b2200000000000000000000000000000000000000000000000000000000815260040160405180910390fd5b610548816105b8565b50565b60003373ffffffffffffffffffffffffffffffffffffffff1660008084815260200190815260200160002060030160009054906101000a900473ffffffffffffffffffffffffffffffffffffffff1673ffffffffffffffffffffffffffffffffffffffff16149050919050565b80600360006101000a81548173ffffffffffffffffffffffffffffffffffffffff021916908373ffffffffffffffffffffffffffffffffffffffff16021790555050565b6040518060a00160405280600081526020016000815260200160008019168152602001600073ffffffffffffffffffffffffffffffffffffffff16815260200160006002811115610676577f4e487b7100000000000000000000000000000000000000000000000000000000600052602160045260246000fd5b81525090565b60008135905061068b81610aab565b92915050565b6000813590506106a081610ac2565b92915050565b6000813590506106b581610ad9565b92915050565b6000813590506106ca81610af0565b92915050565b6000602082840312156106e257600080fd5b60006106f08482850161067c565b91505092915050565b6000806040838503121561070c57600080fd5b600061071a85828601610691565b925050602061072b858286016106a6565b9150509250929050565b60006020828403121561074757600080fd5b6000610755848285016106a6565b91505092915050565b60006020828403121561077057600080fd5b600061077e848285016106bb565b91505092915050565b6107908161091e565b82525050565b61079f8161091e565b82525050565b6107b66107b18261091e565b6109fe565b82525050565b6107cd6107c882610930565b610a10565b82525050565b6107dc8161095c565b82525050565b6107eb8161095c565b82525050565b6107fa816109a3565b82525050565b60a0820160008201516108166000850182610868565b5060208201516108296020850182610868565b50604082015161083c60408501826107d3565b50606082015161084f6060850182610787565b50608082015161086260808501826107f1565b50505050565b61087181610999565b82525050565b61088081610999565b82525050565b600061089282856107bc565b6010820191506108a282846107a5565b6014820191508190509392505050565b60006020820190506108c76000830184610796565b92915050565b60006020820190506108e260008301846107e2565b92915050565b600060a0820190506108fd6000830184610800565b92915050565b60006020820190506109186000830184610877565b92915050565b600061092982610979565b9050919050565b60007fffffffffffffffffffffffffffffffff0000000000000000000000000000000082169050919050565b6000819050919050565b600081905061097482610a97565b919050565b600073ffffffffffffffffffffffffffffffffffffffff82169050919050565b6000819050919050565b60006109ae82610966565b9050919050565b60006109c082610999565b91507fffffffffffffffffffffffffffffffffffffffffffffffffffffffffffffffff8214156109f3576109f2610a2c565b5b600182019050919050565b6000610a0982610a1a565b9050919050565b6000819050919050565b6000610a2582610a8a565b9050919050565b7f4e487b7100000000000000000000000000000000000000000000000000000000600052601160045260246000fd5b7f4e487b7100000000000000000000000000000000000000000000000000000000600052602160045260246000fd5b60008160601b9050919050565b60038110610aa857610aa7610a5b565b5b50565b610ab48161091e565b8114610abf57600080fd5b50565b610acb81610930565b8114610ad657600080fd5b50565b610ae28161095c565b8114610aed57600080fd5b50565b610af981610999565b8114610b0457600080fd5b5056fea2646970667358221220c3d741ae7dd55e6072a74c37789b2c319408f90bf1a156803e5277170863037e64736f6c63430008040033",
  "immutableReferences": {},
  "source": "// SPDX-License-Identifier: MIT\npragma solidity >=0.4.22 <0.9.0;\n\ncontract CourseMarketPlace {\n    enum State {\n        Purchased,\n        Activated,\n        Deactivated\n    }\n\n    struct Course {\n        uint id; //32\n        uint price; //32\n        bytes32 proof; //32\n        address owner; //20\n        State state; //1\n    }\n\n    //mapping of the courseHash to Course data\n    mapping(bytes32 => Course) private ownedCourses;\n\n    //mapping of courseID to courseHash\n    mapping(uint => bytes32) private ownedCourseHash;\n\n    //number of all courses + id of the courses\n    uint private totalOwnedCourses;\n\n    address payable private owner;\n\n    constructor() {\n        setContractOwner(msg.sender);\n    }\n\n    /// Course has already a Owner!\n    error CourseHasOwner();\n\n    /// Only owner has an access\n    error OnlyOnwer();\n\n    modifier onlyOwner() {\n        if (msg.sender != getContractOwner()) {\n            revert OnlyOnwer();\n        }\n        _;\n    }\n\n    function purchaseCourse(\n        bytes16 courseId, //0x00000000000000000000000000003130\n        bytes32 proof //assume proof is ==> 0x0000000000000000000000000000313000000000000000000000000000003130\n    ) external payable {\n        bytes32 courseHash = keccak256(abi.encodePacked(courseId, msg.sender));\n\n        if (hasCourseOwnership(courseHash)) {\n            revert CourseHasOwner();\n        }\n\n        uint id = totalOwnedCourses++;\n\n        ownedCourseHash[id] = courseHash;\n        ownedCourses[courseHash] = Course({\n            id: id,\n            price: msg.value,\n            proof: proof,\n            owner: msg.sender,\n            state: State.Purchased\n        });\n    }\n\n    function transferOwnership(address newOwner) external onlyOwner {\n        setContractOwner(newOwner);\n    }\n\n    function getCourseCount() external view returns (uint) {\n        return totalOwnedCourses;\n    }\n\n    function getCourseHashAtIndex(uint index) external view returns (bytes32) {\n        return ownedCourseHash[index];\n    }\n\n    function getCourseHashByHash(\n        bytes32 courseHash\n    ) external view returns (Course memory) {\n        return ownedCourses[courseHash];\n    }\n\n    function getContractOwner() public view returns (address) {\n        return owner;\n    }\n\n    function setContractOwner(address newOwner) private {\n        owner = payable(newOwner);\n    }\n\n    function hasCourseOwnership(\n        bytes32 courseHash\n    ) private view returns (bool) {\n        return ownedCourses[courseHash].owner == msg.sender;\n    }\n}\n",
  "sourcePath": "/Users/apple/Desktop/development/crypto-project/marketplace-eth/contracts/CourseMarketPlace.sol",
  "compiler": {
    "name": "solc",
    "version": "0.8.4+commit.c7e474f2.Emscripten.clang"
  },
  "schemaVersion": "3.4.13",
  "updatedAt": "2023-08-13T21:47:19.557Z",
  "devdoc": {
    "kind": "dev",
    "methods": {},
    "version": 1
  },
  "userdoc": {
    "errors": {
      "CourseHasOwner()": [
        {
          "notice": "Course has already a Owner!"
        }
      ],
      "OnlyOnwer()": [
        {
          "notice": "Only owner has an access"
        }
      ]
    },
    "kind": "user",
    "methods": {},
    "version": 1
  }
}